:100000004AC0B9C163C062C061C060C05FC05EC0A9
:100010005DC05CC05BC05AC059C058C057C056C014
:1000200055C054C053C024034D006F006E007300D0
:1000300074006500720020004A006F0079007300B0
:100040007400690063006B007300040309040A0371
:10005000310030003000300005010904A101090120
:10006000A10009300931150026FF007508950281AD
:100070000205091901290815002501750195088156
:1000800002C0C01201010100000008C016DC2702F6
:1000900000010200010011241FBECFE5D4E0DEBF45
:1000A000CDBF10E0A0E6B0E0E0E1FDE002C00590C9
:1000B0000D92AA3AB107D9F721E0AAEAB0E001C04F
:1000C0001D92A530B207E1F7EAD420C699CFCF93AD
:1000D000C62F2091600024FF14C02091DB0038E877
:1000E00023272093DB00ACEDB0E02C2F215068F4E7
:1000F0006C2F8CED90E03BD1CC5FC0936000CF9132
:1001000008952AE520936000EECFFC0181918D9344
:10011000CF01ECCF1F93CF93DF938091EB001816A4
:1001200064F49091E7009D32B1F190E880E0909303
:10013000AA00809362001092EB008091610084FF1E
:10014000E0C0D0916200DF3F09F4DBC0CD2FD93091
:1001500008F0C8E08D2F8C1B809362002091AA00CC
:1001600013EC20FF1BE42F5F2093AA008091E9008D
:100170009091EA0026FDD3C0A1EDB0E0382F492FC1
:100180002C2F215008F4A9C0E32FF42F31913D9377
:100190003E2F4F2FF6CF9091E8002AE52093610083
:1001A0008B3019F6CCE0D0E0C91BD109C151DF4F2B
:1001B0008881807609F089C01092D90099819111C7
:1001C00013C01092DA0089ED90E09093EA008093DA
:1001D000E90090E882E02F812111A9CF2E81281714
:1001E00008F0A5CF822FA3CF953029F49A81909360
:1001F000EC0090E8F0CF963009F04AC09B81913036
:1002000019F4CE011BD242C0923019F4CE0116D29D
:10021000F0CF933069F59A81911109C08AE490E09A
:100220009093EA008093E90090EC84E0D4CF913081
:1002300049F486E290E09093EA008093E90090EC24
:1002400084E2C9CF923049F485E890E09093EA00C7
:100250008093E90090E880E1BECF9330B9F48EE45A
:1002600090E09093EA008093E90090EC8CE0B3CFAB
:10027000913249F48DEB90E09093EA008093E9008D
:1002800090EC89E0A8CF923209F4BBCF90ECA3CFD9
:10029000983049F48EEE90E09093EA008093E90064
:1002A00090E881E098CF993021F49A819093EE0004
:1002B000A0CF9A3019F489ED90E0EECF9B3009F091
:1002C00098CF93EC9093DB0094CFCE01E5D191CF02
:1002D00034913D9331962150D8F78C0F911D909316
:1002E000EA008093E9006C2F81ED90E040D0CC5F74
:1002F000D83018F48FEF809362001093D000C09331
:1003000061008AE090B3957031F48150D9F7109272
:10031000EC001092E600DF91CF911F910895FC014F
:100320002C2FA1EDB0E0D7CF85B7836085BF8BB709
:1003300080648BBF83EC8093DB000895A82FB92FD6
:100340008FEF9FEF41E050EA615070F02D9138E05F
:10035000722F782796958795269570FF02C084277F
:1003600095273A95A9F7F0CF809590950895E6DF07
:100370008D939D930895CF93CFB7CF93809BFECF5E
:10038000809B09C0809B07C0809B05C0809B03C0E9
:10039000809B01C09EC0DF93C091E800DD27C15162
:1003A000DF4F809B02C0DF91EBCF2F930F931F9302
:1003B00000B32FEF00FB20F94F933F9310B34FEFA3
:1003C000012700FB21F93BE031C04E7F012F10B324
:1003D000216028C0102F4D7F2260000000B329C08B
:1003E0004B7F2460012F000010B32BC010B3477F58
:1003F00028602AC04F7E00B320612CC04F7D10B30F
:1004000020622FC04F7B00B3206432C0422700B36C
:1004100049934FEF0000102710FB20F910B315701F
:10042000A9F1297F91F2012700FB21F900B3237F75
:1004300089F23150F0F1102710FB22F910B3277E1A
:1004400079F2012700FB23F92F7C81F200B31027FA
:1004500010FB24F92F7971F200C010B3012700FBC3
:1004600025F92F7359F200C000B3102710FB26F9AD
:10047000223040F200C010B3012700FB27F92430DE
:1004800028F64F77206810B30000F9CF3B50319524
:10049000333010E41ABFB8F0C31BD0400881033CCE
:1004A00041F10B3431F11981412F1F772091E60082
:1004B000121731F4093691F10D3279F0013E69F0ED
:1004C00022272093ED003F914F911F910F912F9183
:1004D000DF91CF91CFBFCF9118950093ED003F9161
:1004E0004F911F910F912F91DF91CAB7C6FD46CF53
:1004F000F0CF0091ED00002331F31091EB001123B8
:10050000A1F53430A2F13093EB000093E700109195
:10051000E8003BE0311B3093E80029C00091EB007C
:1005200001301CF50AE547FD09C03091610034FD3A
:1005300020C000936100C0EDD0E01FC0309160008A
:1005400034FD17C000936000CBEDD0E016C0052746
:1005500010E002BB1FC0052722C0052727C00527C2
:100560002CC0052710E002BB33C04AE503C042EDB2
:1005700001C0432FC4E1D0E032E011B31560909A7E
:1005800002B311BB5F9355E020E820FF052702BBB3
:10059000279517951C3FD8F620FF0527279502BB06
:1005A00017951C3FC0F620FF05272795179502BB1E
:1005B0001C3F98F620FF0527279517951C3F02BB87
:1005C00070F600C0499120FF052702BB27951795BB
:1005D0001C3F38F620FF0527279502BB17951C3FC7
:1005E00038F520FF05272795179502BB1C3F10F50E
:1005F00020FF0527279517951C3F02BBE8F4242F01
:100600003A9519F60A7F5F9102BB00C01091EC0089
:10061000C651D04011F01093E60010E41ABF0160FB
:1006200011B31A7F402F4A7F02BB11BB42BB4BCF95
:100630000527D3CF0527D8CF0527DDCFFC01808143
:10064000807641F59181963031F593819230D1F0E9
:10065000923269F09130F9F48091C3009091C40016
:100660009093EA008093E9008091C2000895809100
:10067000C6009091C7009093EA008093E9008091B2
:10068000C500089583E690E09093EA008093E90026
:1006900082E2089580E00895DC018CEA90E0909376
:1006A000EA008093E9008C918076803211F080E03E
:1006B000089511968C911197823081F08A30F1F073
:1006C0008130A9F7E091C000F091C1000088F18964
:1006D000E02D12966C918CEA90E0099412968C9120
:1006E0009FEF980F983018F78150990B8E549F4FB9
:1006F0009093EA008093E90081E008951296EC91CE
:100700001297E1110BC0E2EBF0E013968C91139776
:10071000819380E0EA3BF807C1F7C9CF8FEF8E0FD6
:10072000883028F613968C91F0E0EF54FF4F8083C9
:10073000BECF93B323B353B343B383B330B3227069
:100740009170922B5470952B4870942B8071892B4B
:10075000232F30E03595279520723327822B08957B
:10076000EF92FF920F931F93CF93DF93EC01AD9A1B
:10077000E0DFE82EAD98DDDFF82EAD9AAD98D9DF39
:10078000082FAD9AAD98D5DF182FAD9AD2DFAD986E
:10079000AD9AE882F9828A830B831C83DF91CF9123
:1007A0001F910F91FF90EF900895FC01892B49F064
:1007B0008091CD009091CE00A091CF008083918355
:1007C000A2838091CD009091CE00A091CF00809324
:1007D000CA009093CB00A093CC0083E00895CF9300
:1007E000DF9300D000D00F92CDB7DEB78091C80064
:1007F0009091C900019709F06CC08BE291E00197DC
:10080000F1F700C0000095DF809589838A8390E02E
:1008100080FF9FE781FD9FEF20E082FF2FE783FDB0
:100820002FEF2093CD009093CE00A49AAC9A8E988F
:100830009698B89AC0981092CF001B82C09A90E305
:100840009A95F1F7C09887E098E19A95F1F7AC98FE
:10085000869903C09B8191609B839B81990F9B83A9
:1008600098E19A95F1F7AC9A815071F78B8187FFE7
:1008700005C09091CF0091609093CF0086FF05C096
:100880009091CF0092609093CF0085FF05C090912A
:10089000CF0094609093CF0084FF05C09091CF006B
:1008A00098609093CF0083FF05C09091CF00906136
:1008B0009093CF0082FF05C09091CF0090629093FB
:1008C000CF0081FF5EC08091CF0080648093CF0015
:1008D00058C0CE01019644DF3981832F80952A814B
:1008E00020959B81909530FD54C030E081FD3FEF15
:1008F00040E082FF4FE783FD4FEF4093CD00309300
:10090000CE001092CF004091A900382F3071807234
:10091000423008F440C024FF03C051E05093CF00A0
:10092000332329F03091CF0032603093CF008823F9
:1009300029F08091CF0084608093CF0025FF05C00F
:100940008091CF0088608093CF004330D1F492FF34
:1009500005C08091CF0080618093CF0091FF05C0DA
:100960008091CF0080628093CF0090FF05C080917E
:10097000CF0080648093CF008091CF00806893FD8A
:10098000A5CF0F900F900F900F900F90DF91CF9108
:1009900008953FE7ABCF332319F091E09093CF0058
:1009A000882379F38091CF00826090CF1F93CF93FB
:1009B000DF9300D000D00F92CDB7DEB71FB7F89409
:1009C00084B3807E84BB85B38F6185BB8E98969AF5
:1009D000A59AAD9AB89AC09A8F9A9798CE01019627
:1009E000BFDE81E08093A9002981922F9F708A81C8
:1009F0009F3079F4982F9F70933059F49C819F70A9
:100A0000933021F49D819F70933039F193E090935E
:100A1000A90085FD03C093E09093A90020FF0BC0BF
:100A200080FF09C08B8180FF06C08C8180FF03C0DE
:100A30008D8180FD06C081E090E09093C900809395
:100A4000C800CDDE1FBF80E00F900F900F900F9079
:100A50000F90DF91CF911F91089592E0D8CF8091B0
:100A6000930090919400892B31F010929400109291
:100A7000930081E0089543E050E06AEC70E08DEC73
:100A800090E037D1089588E590E090939A008093A4
:100A9000990085E990E0089582E190E00895CDB74E
:100AA000DEB728970FB6F894DEBF0FBECDBF88E043
:100AB0009E012F5F3F4F6901D901E82F1D92EA95F2
:100AC000E9F7E2EBF0E0DF011D928A95E9F7EFE24A
:100AD000F5E73197F1F700C00000D5DFFC019093F6
:100AE000C1008093C000848195819093C70080935A
:100AF000C60082818093C50080859185009709F4A6
:100B00008EC09093C4008093C30086818093C200FE
:100B10008091C50080937C0014BA8FEF85BB80EF75
:100B200082BB85E081BB11BA83BF8FE085BD84ECB9
:100B300083BD85B78F7885BFE091C000F091C1007B
:100B40000284F385E02D0995EFDB78947724739484
:100B500099249394AA24A394B12C90E8892E072D6C
:100B6000A895D8DA002341F0E091C000F091C100CF
:100B70000484F585E02D0995E091C000F091C10055
:100B80000288F389E02D309709F0099508B600FE38
:100B900064C098BEE091C000F091C10040815181D5
:100BA000A2EBB0E090E080E000E0841795070CF441
:100BB0003EC008B607FE29C088BEE091C000F09193
:100BC000C10082899389892B69F485B7806885BFC4
:100BD000889585B78F7785BF8BE291E00197F1F714
:100BE00000C00000E091C000F091C1000484F585D0
:100BF000E02D0995F12CE12CE091C000F091C100AD
:100C000080819181E816F90654F1002309F4A8CFF8
:100C1000F12CE12C712C002E000C110B3FC083E84D
:100C200090E09093C4008093C30036DF6FCF3D9176
:100C3000332341F0F601E80FF91F2081253020F021
:100C4000255020830196B1CF30839501082E01C035
:100C5000220F0A94EAF7022BF5CF00E0AACF068410
:100C6000F785E02D81E08E0D0995882339F0C501C7
:100C70000E2C01C0880F0A94EAF7082B9FEFE91A9F
:100C8000F90ABACFC8010E2C02C0959587950A942F
:100C9000E2F780FD0DC0AFEFEA1AFA0AE091C0005A
:100CA000F091C10080819181E816F9065CF357CF7D
:100CB0008091600084FFEFCF0088F189E02D61E032
:100CC0006E0D8AEB90E00995682F8AEB90E0FFD9D2
:100CD0008091600084FDDFCF1DDAA895E091C0000F
:100CE000F091C1000288F389E02D309789F30995CE
:100CF000EFCFFB01DC0104C08D910190801921F43C
:100D000041505040C8F7881B990B0895F894FFCFC5
:100D10005A5AFF0902220001010080FA090400006A
:100D20000103000000092101010001220000070564
:100D3000810308000A0E034D004A003200440042BD
:100D4000003900010001002B00000000000000D667
:0A0D500004EF032F05D50300000295
:00000001FF
